{
  "contractName": "EinsteinFarming",
  "abi": [
    {
      "anonymous": false,
      "inputs": [
        {
          "indexed": true,
          "internalType": "address",
          "name": "from",
          "type": "address"
        },
        {
          "indexed": true,
          "internalType": "address",
          "name": "to",
          "type": "address"
        },
        {
          "indexed": false,
          "internalType": "uint256",
          "name": "amount",
          "type": "uint256"
        }
      ],
      "name": "ExternalTokenTransferred",
      "type": "event"
    },
    {
      "anonymous": false,
      "inputs": [
        {
          "indexed": true,
          "internalType": "address",
          "name": "from",
          "type": "address"
        },
        {
          "indexed": true,
          "internalType": "address",
          "name": "to",
          "type": "address"
        },
        {
          "indexed": false,
          "internalType": "uint256",
          "name": "amount",
          "type": "uint256"
        }
      ],
      "name": "FarmedToken",
      "type": "event"
    },
    {
      "anonymous": false,
      "inputs": [
        {
          "indexed": true,
          "internalType": "address",
          "name": "previousOwner",
          "type": "address"
        },
        {
          "indexed": true,
          "internalType": "address",
          "name": "newOwner",
          "type": "address"
        }
      ],
      "name": "OwnershipTransferred",
      "type": "event"
    },
    {
      "anonymous": false,
      "inputs": [
        {
          "indexed": false,
          "internalType": "address",
          "name": "account",
          "type": "address"
        }
      ],
      "name": "Paused",
      "type": "event"
    },
    {
      "anonymous": false,
      "inputs": [
        {
          "indexed": true,
          "internalType": "address",
          "name": "from",
          "type": "address"
        },
        {
          "indexed": true,
          "internalType": "address",
          "name": "to",
          "type": "address"
        },
        {
          "indexed": false,
          "internalType": "uint256",
          "name": "amount",
          "type": "uint256"
        }
      ],
      "name": "RemoveFarmedToken",
      "type": "event"
    },
    {
      "anonymous": false,
      "inputs": [
        {
          "indexed": true,
          "internalType": "address",
          "name": "from",
          "type": "address"
        },
        {
          "indexed": true,
          "internalType": "address",
          "name": "to",
          "type": "address"
        },
        {
          "indexed": false,
          "internalType": "uint256",
          "name": "amount",
          "type": "uint256"
        }
      ],
      "name": "Reward",
      "type": "event"
    },
    {
      "anonymous": false,
      "inputs": [
        {
          "indexed": false,
          "internalType": "uint256",
          "name": "newTimeBound",
          "type": "uint256"
        }
      ],
      "name": "TimeBoundChanged",
      "type": "event"
    },
    {
      "anonymous": false,
      "inputs": [
        {
          "indexed": false,
          "internalType": "address",
          "name": "account",
          "type": "address"
        }
      ],
      "name": "Unpaused",
      "type": "event"
    },
    {
      "anonymous": false,
      "inputs": [
        {
          "indexed": false,
          "internalType": "contract IBEP20",
          "name": "lpToken",
          "type": "address"
        },
        {
          "indexed": false,
          "internalType": "uint256",
          "name": "lockPeriod",
          "type": "uint256"
        }
      ],
      "name": "UpdatedLockPeriod",
      "type": "event"
    },
    {
      "anonymous": false,
      "inputs": [
        {
          "indexed": false,
          "internalType": "contract IBEP20",
          "name": "lpToken",
          "type": "address"
        },
        {
          "indexed": false,
          "internalType": "uint256",
          "name": "rewardInterval",
          "type": "uint256"
        }
      ],
      "name": "UpdatedRewardInterval",
      "type": "event"
    },
    {
      "anonymous": false,
      "inputs": [
        {
          "indexed": false,
          "internalType": "contract IBEP20",
          "name": "lpToken",
          "type": "address"
        },
        {
          "indexed": false,
          "internalType": "uint256",
          "name": "rewardRate",
          "type": "uint256"
        }
      ],
      "name": "UpdatedRewardRate",
      "type": "event"
    },
    {
      "anonymous": false,
      "inputs": [
        {
          "indexed": false,
          "internalType": "contract IBEP20",
          "name": "lpToken",
          "type": "address"
        },
        {
          "indexed": false,
          "internalType": "contract IBEP20",
          "name": "rewardToken",
          "type": "address"
        }
      ],
      "name": "UpdatedRewardToken",
      "type": "event"
    },
    {
      "anonymous": false,
      "inputs": [
        {
          "indexed": false,
          "internalType": "contract IBEP20",
          "name": "lpToken",
          "type": "address"
        },
        {
          "indexed": false,
          "internalType": "uint256",
          "name": "endTime",
          "type": "uint256"
        }
      ],
      "name": "UpdatedendTime",
      "type": "event"
    },
    {
      "anonymous": false,
      "inputs": [
        {
          "indexed": true,
          "internalType": "address",
          "name": "user",
          "type": "address"
        },
        {
          "indexed": false,
          "internalType": "uint256",
          "name": "amount",
          "type": "uint256"
        }
      ],
      "name": "WithdrawFromFarmedBalance",
      "type": "event"
    },
    {
      "anonymous": false,
      "inputs": [
        {
          "indexed": true,
          "internalType": "address",
          "name": "to",
          "type": "address"
        },
        {
          "indexed": false,
          "internalType": "contract IBEP20",
          "name": "lptoken",
          "type": "address"
        }
      ],
      "name": "withdrawRequested",
      "type": "event"
    },
    {
      "inputs": [
        {
          "internalType": "address",
          "name": "",
          "type": "address"
        },
        {
          "internalType": "contract IBEP20",
          "name": "",
          "type": "address"
        }
      ],
      "name": "claimedReward",
      "outputs": [
        {
          "internalType": "uint256",
          "name": "",
          "type": "uint256"
        }
      ],
      "stateMutability": "view",
      "type": "function"
    },
    {
      "inputs": [
        {
          "internalType": "address",
          "name": "",
          "type": "address"
        },
        {
          "internalType": "contract IBEP20",
          "name": "",
          "type": "address"
        },
        {
          "internalType": "uint256",
          "name": "",
          "type": "uint256"
        }
      ],
      "name": "farmedBalances",
      "outputs": [
        {
          "internalType": "uint256",
          "name": "",
          "type": "uint256"
        }
      ],
      "stateMutability": "view",
      "type": "function"
    },
    {
      "inputs": [
        {
          "internalType": "address",
          "name": "",
          "type": "address"
        },
        {
          "internalType": "contract IBEP20",
          "name": "",
          "type": "address"
        },
        {
          "internalType": "uint256",
          "name": "",
          "type": "uint256"
        }
      ],
      "name": "farmingTimestamps",
      "outputs": [
        {
          "internalType": "uint256",
          "name": "",
          "type": "uint256"
        }
      ],
      "stateMutability": "view",
      "type": "function"
    },
    {
      "inputs": [],
      "name": "name",
      "outputs": [
        {
          "internalType": "string",
          "name": "",
          "type": "string"
        }
      ],
      "stateMutability": "view",
      "type": "function"
    },
    {
      "inputs": [],
      "name": "owner",
      "outputs": [
        {
          "internalType": "address",
          "name": "",
          "type": "address"
        }
      ],
      "stateMutability": "view",
      "type": "function"
    },
    {
      "inputs": [],
      "name": "paused",
      "outputs": [
        {
          "internalType": "bool",
          "name": "",
          "type": "bool"
        }
      ],
      "stateMutability": "view",
      "type": "function"
    },
    {
      "inputs": [
        {
          "internalType": "contract IBEP20",
          "name": "",
          "type": "address"
        }
      ],
      "name": "poolInfo",
      "outputs": [
        {
          "internalType": "contract IBEP20",
          "name": "lpToken",
          "type": "address"
        },
        {
          "internalType": "contract IBEP20",
          "name": "rewardToken",
          "type": "address"
        },
        {
          "internalType": "uint256",
          "name": "rewardRate",
          "type": "uint256"
        },
        {
          "internalType": "uint256",
          "name": "rewardInterval",
          "type": "uint256"
        },
        {
          "internalType": "uint256",
          "name": "startBlock",
          "type": "uint256"
        },
        {
          "internalType": "uint256",
          "name": "lockPeriod",
          "type": "uint256"
        },
        {
          "internalType": "uint256",
          "name": "endTime",
          "type": "uint256"
        },
        {
          "internalType": "uint256",
          "name": "totalFarmedAmount",
          "type": "uint256"
        }
      ],
      "stateMutability": "view",
      "type": "function"
    },
    {
      "inputs": [],
      "name": "renounceOwnership",
      "outputs": [],
      "stateMutability": "nonpayable",
      "type": "function"
    },
    {
      "inputs": [],
      "name": "timeBound",
      "outputs": [
        {
          "internalType": "uint256",
          "name": "",
          "type": "uint256"
        }
      ],
      "stateMutability": "view",
      "type": "function"
    },
    {
      "inputs": [
        {
          "internalType": "address",
          "name": "newOwner",
          "type": "address"
        }
      ],
      "name": "transferOwnership",
      "outputs": [],
      "stateMutability": "nonpayable",
      "type": "function"
    },
    {
      "inputs": [
        {
          "internalType": "address",
          "name": "",
          "type": "address"
        },
        {
          "internalType": "contract IBEP20",
          "name": "",
          "type": "address"
        }
      ],
      "name": "userFarmCount",
      "outputs": [
        {
          "internalType": "uint256",
          "name": "",
          "type": "uint256"
        }
      ],
      "stateMutability": "view",
      "type": "function"
    },
    {
      "inputs": [
        {
          "internalType": "address",
          "name": "",
          "type": "address"
        },
        {
          "internalType": "contract IBEP20",
          "name": "",
          "type": "address"
        }
      ],
      "name": "userInfo",
      "outputs": [
        {
          "internalType": "uint256",
          "name": "farmedAmount",
          "type": "uint256"
        },
        {
          "internalType": "uint256",
          "name": "farmingStartTime",
          "type": "uint256"
        },
        {
          "internalType": "bool",
          "name": "hasFarmed",
          "type": "bool"
        },
        {
          "internalType": "bool",
          "name": "isFarming",
          "type": "bool"
        },
        {
          "internalType": "uint256",
          "name": "oldReward",
          "type": "uint256"
        }
      ],
      "stateMutability": "view",
      "type": "function"
    },
    {
      "inputs": [
        {
          "internalType": "address",
          "name": "",
          "type": "address"
        },
        {
          "internalType": "contract IBEP20",
          "name": "",
          "type": "address"
        }
      ],
      "name": "userTimeBounds",
      "outputs": [
        {
          "internalType": "uint256",
          "name": "",
          "type": "uint256"
        }
      ],
      "stateMutability": "view",
      "type": "function"
    },
    {
      "inputs": [],
      "name": "initialize",
      "outputs": [],
      "stateMutability": "nonpayable",
      "type": "function"
    },
    {
      "inputs": [
        {
          "internalType": "contract IBEP20",
          "name": "_lpToken",
          "type": "address"
        },
        {
          "internalType": "contract IBEP20",
          "name": "_rewardToken",
          "type": "address"
        },
        {
          "internalType": "uint256",
          "name": "_rewardRate",
          "type": "uint256"
        },
        {
          "internalType": "uint256",
          "name": "_rewardIntervalInSeconds",
          "type": "uint256"
        },
        {
          "internalType": "uint256",
          "name": "_startBlock",
          "type": "uint256"
        },
        {
          "internalType": "uint256",
          "name": "_lockPeriodInSeconds",
          "type": "uint256"
        },
        {
          "internalType": "uint256",
          "name": "_endTime",
          "type": "uint256"
        },
        {
          "internalType": "uint256",
          "name": "_totalFarmedAmount",
          "type": "uint256"
        }
      ],
      "name": "addPool",
      "outputs": [],
      "stateMutability": "nonpayable",
      "type": "function"
    },
    {
      "inputs": [
        {
          "internalType": "contract IBEP20",
          "name": "lpToken",
          "type": "address"
        },
        {
          "internalType": "uint256",
          "name": "_amount",
          "type": "uint256"
        }
      ],
      "name": "farmTokensForReward",
      "outputs": [],
      "stateMutability": "nonpayable",
      "type": "function"
    },
    {
      "inputs": [
        {
          "internalType": "contract IBEP20",
          "name": "lpToken",
          "type": "address"
        },
        {
          "internalType": "address",
          "name": "_rewardAddress",
          "type": "address"
        }
      ],
      "name": "calculateReward",
      "outputs": [
        {
          "internalType": "uint256",
          "name": "",
          "type": "uint256"
        }
      ],
      "stateMutability": "view",
      "type": "function"
    },
    {
      "inputs": [
        {
          "internalType": "contract IBEP20",
          "name": "lpToken",
          "type": "address"
        }
      ],
      "name": "withdrawFarmedTokens",
      "outputs": [],
      "stateMutability": "nonpayable",
      "type": "function"
    },
    {
      "inputs": [
        {
          "internalType": "contract IBEP20",
          "name": "lpToken",
          "type": "address"
        }
      ],
      "name": "emergencyWithdraw",
      "outputs": [],
      "stateMutability": "nonpayable",
      "type": "function"
    },
    {
      "inputs": [
        {
          "internalType": "address",
          "name": "_tokenContract",
          "type": "address"
        },
        {
          "internalType": "uint256",
          "name": "_amount",
          "type": "uint256"
        }
      ],
      "name": "withdrawBEP20Token",
      "outputs": [],
      "stateMutability": "nonpayable",
      "type": "function"
    },
    {
      "inputs": [
        {
          "internalType": "contract IBEP20",
          "name": "lpToken",
          "type": "address"
        },
        {
          "internalType": "uint256",
          "name": "_rewardRate",
          "type": "uint256"
        }
      ],
      "name": "setRewardRate",
      "outputs": [],
      "stateMutability": "nonpayable",
      "type": "function"
    },
    {
      "inputs": [
        {
          "internalType": "contract IBEP20",
          "name": "lpToken",
          "type": "address"
        },
        {
          "internalType": "contract IBEP20",
          "name": "_rewardToken",
          "type": "address"
        }
      ],
      "name": "setRewardToken",
      "outputs": [],
      "stateMutability": "nonpayable",
      "type": "function"
    },
    {
      "inputs": [
        {
          "internalType": "contract IBEP20",
          "name": "lpToken",
          "type": "address"
        },
        {
          "internalType": "uint256",
          "name": "_rewardInterval",
          "type": "uint256"
        }
      ],
      "name": "setRewardInterval",
      "outputs": [],
      "stateMutability": "nonpayable",
      "type": "function"
    },
    {
      "inputs": [
        {
          "internalType": "contract IBEP20",
          "name": "lpToken",
          "type": "address"
        },
        {
          "internalType": "uint256",
          "name": "_endTime",
          "type": "uint256"
        }
      ],
      "name": "setEndTime",
      "outputs": [],
      "stateMutability": "nonpayable",
      "type": "function"
    },
    {
      "inputs": [
        {
          "internalType": "contract IBEP20",
          "name": "lpToken",
          "type": "address"
        },
        {
          "internalType": "uint256",
          "name": "_lockPeriodInSeconds",
          "type": "uint256"
        }
      ],
      "name": "setLockPeriod",
      "outputs": [],
      "stateMutability": "nonpayable",
      "type": "function"
    },
    {
      "inputs": [
        {
          "internalType": "contract IBEP20",
          "name": "_lpToken",
          "type": "address"
        }
      ],
      "name": "requestWithdraw",
      "outputs": [],
      "stateMutability": "nonpayable",
      "type": "function"
    },
    {
      "inputs": [
        {
          "internalType": "uint256",
          "name": "_newTimeBound",
          "type": "uint256"
        }
      ],
      "name": "setTimeBound",
      "outputs": [],
      "stateMutability": "nonpayable",
      "type": "function"
    },
    {
      "inputs": [
        {
          "internalType": "address",
          "name": "userAddress",
          "type": "address"
        },
        {
          "internalType": "contract IBEP20",
          "name": "_lpToken",
          "type": "address"
        },
        {
          "internalType": "uint256[]",
          "name": "balances",
          "type": "uint256[]"
        },
        {
          "internalType": "uint256[]",
          "name": "timestamps",
          "type": "uint256[]"
        },
        {
          "internalType": "uint256",
          "name": "_claimedReward",
          "type": "uint256"
        }
      ],
      "name": "upgradeUsers",
      "outputs": [],
      "stateMutability": "nonpayable",
      "type": "function"
    },
    {
      "inputs": [
        {
          "internalType": "address",
          "name": "userAddress",
          "type": "address"
        },
        {
          "internalType": "contract IBEP20",
          "name": "_lpToken",
          "type": "address"
        }
      ],
      "name": "removeUsers",
      "outputs": [],
      "stateMutability": "nonpayable",
      "type": "function"
    },
    {
      "inputs": [],
      "name": "pause",
      "outputs": [],
      "stateMutability": "nonpayable",
      "type": "function"
    },
    {
      "inputs": [],
      "name": "unpause",
      "outputs": [],
      "stateMutability": "nonpayable",
      "type": "function"
    }
  ],
  "bytecode": "0x608060405234801561001057600080fd5b50612d22806100206000396000f3fe608060405234801561001057600080fd5b50600436106101e55760003560e01c80638129fc1c1161010f5780639aa84254116100a2578063e1a8b0ca11610071578063e1a8b0ca1461054f578063e5c8c57214610562578063f24651c214610575578063f2fde38b1461057e57600080fd5b80639aa84254146104eb578063a35a36e9146104fe578063c2e6fdad14610511578063d520673f1461052457600080fd5b80638dac264d116100de5780638dac264d1461040e5780638e6eecdb14610421578063918d745f146104345780639a7b5f111461044757600080fd5b80638129fc1c146103d0578063812a71d5146103d85780638456cb59146103eb5780638da5cb5b146103f357600080fd5b80633f4ba83a1161018757806362e0723f1161015657806362e0723f1461038f5780636ff1c9bc146103a2578063715018a6146103b55780637ca44fcf146103bd57600080fd5b80633f4ba83a146103335780634a2393521461033b5780635356589a1461034e5780635c975abb1461037957600080fd5b80630f208beb116101c35780630f208beb1461026757806319f63a27146102e25780632c9cebad146102f557806334380a611461030857600080fd5b806305fdeebf146101ea57806306fdde03146102105780630c86bc8514610252575b600080fd5b6101fd6101f83660046128d5565b610591565b6040519081526020015b60405180910390f35b6102456040518060400160405280601681526020017545494e535445494e2d5969656c642d4661726d696e6760501b81525081565b6040516102079190612a01565b6102656102603660046127ee565b6105cf565b005b6102b461027536600461280b565b60ca60209081526000928352604080842090915290825290208054600182015460028301546003909301549192909160ff808316926101009004169085565b604080519586526020860194909452911515928401929092529015156060830152608082015260a001610207565b6102656102f0366004612916565b61084b565b610265610303366004612916565b6108f4565b6101fd61031636600461280b565b60d060209081526000928352604080842090915290825290205481565b610265610995565b6101fd6103493660046128d5565b6109c9565b6101fd61035c36600461280b565b60cf60209081526000928352604080842090915290825290205481565b60655460ff166040519015158152602001610207565b61026561039d366004612964565b6109f1565b6102656103b03660046127ee565b610ac7565b610265610d74565b6101fd6103cb36600461280b565b610da8565b610265611152565b6102656103e6366004612916565b61122a565b6102656112cb565b6033546040516001600160a01b039091168152602001610207565b61026561041c3660046129cf565b611320565b61026561042f36600461280b565b6113a8565b610265610442366004612916565b611474565b6104a56104553660046127ee565b60c960205260009081526040902080546001820154600283015460038401546004850154600586015460068701546007909701546001600160a01b03968716979590961695939492939192909188565b604080516001600160a01b03998a168152989097166020890152958701949094526060860192909252608085015260a084015260c083015260e082015261010001610207565b6102656104f9366004612844565b611979565b61026561050c3660046127ee565b611acd565b61026561051f366004612916565b611baa565b6101fd61053236600461280b565b60cc60209081526000928352604080842090915290825290205481565b61026561055d366004612916565b611c4b565b61026561057036600461280b565b611ee2565b6101fd60cb5481565b61026561058c3660046127ee565b611f96565b60cd60205282600052604060002060205281600052604060002081815481106105b957600080fd5b9060005260206000200160009250925050505481565b600260975414156105fb5760405162461bcd60e51b81526004016105f290612bd3565b60405180910390fd5b600260975560655460ff16156106235760405162461bcd60e51b81526004016105f290612aa1565b33600090815260ca602090815260408083206001600160a01b0385168452909152902060020154610100900460ff1661066e5760405162461bcd60e51b81526004016105f290612b44565b6001600160a01b038116600081815260c9602090815260408083206005015433845260ca8352818420948452939091529020600101546106ae9042612c63565b10156106fc5760405162461bcd60e51b815260206004820152601a60248201527f4661726d696e673a20497320696e206c6f636b20706572696f6400000000000060448201526064016105f2565b33600090815260cc602090815260408083206001600160a01b038516845290915290205461073c5760405162461bcd60e51b81526004016105f290612a56565b60cb5433600090815260cc602090815260408083206001600160a01b038616845290915290205461076d9190612c0a565b4210156107d45760405162461bcd60e51b815260206004820152602f60248201527f43616e6e6f7420706572666f726d2077697468647261772077697468696e207460448201526e686520756e626f756e642074696d6560881b60648201526084016105f2565b33600081815260ca602090815260408083206001600160a01b038616845290915281205491610804908490610da8565b9050610810838261202e565b5061081b838361226e565b505033600090815260cc602090815260408083206001600160a01b03949094168352929052908120556001609755565b6033546001600160a01b031633146108755760405162461bcd60e51b81526004016105f290612b0f565b60655460ff16156108985760405162461bcd60e51b81526004016105f290612aa1565b6001600160a01b038216600081815260c96020908152604091829020600501849055815192835282018390527f8214edfb74b4e2f1e88f6a0dc87bcf43a248a28ec6e1593ccc7622376fd804f991015b60405180910390a15050565b6033546001600160a01b0316331461091e5760405162461bcd60e51b81526004016105f290612b0f565b60655460ff16156109415760405162461bcd60e51b81526004016105f290612aa1565b6001600160a01b038216600081815260c96020908152604091829020600301849055815192835282018390527fda8c662e289f4ae3e2164429bc6e0eb6a0fc60e8e487e3875b7d17c7a0e765e591016108e8565b6033546001600160a01b031633146109bf5760405162461bcd60e51b81526004016105f290612b0f565b6109c76124e3565b565b60ce60205282600052604060002060205281600052604060002081815481106105b957600080fd5b6033546001600160a01b03163314610a1b5760405162461bcd60e51b81526004016105f290612b0f565b60408051610100810182526001600160a01b03998a16808252988a166020808301918252828401998a52606083019889526080830197885260a0830196875260c0830195865260e0830194855260009a8b5260c990529190982097518854908a166001600160a01b0319918216178955905160018901805491909a1691161790975593516002860155915160038501555160048401555160058301555160068201559051600790910155565b60026097541415610aea5760405162461bcd60e51b81526004016105f290612bd3565b600260975560655460ff1615610b125760405162461bcd60e51b81526004016105f290612aa1565b33600090815260ca602090815260408083206001600160a01b0385168452909152902060020154610100900460ff16610b5d5760405162461bcd60e51b81526004016105f290612b44565b33600090815260cc602090815260408083206001600160a01b0385168452909152902054610b9d5760405162461bcd60e51b81526004016105f290612a56565b60cb5433600090815260cc602090815260408083206001600160a01b0386168452909152902054610bce9190612c0a565b421015610c335760405162461bcd60e51b815260206004820152602d60248201527f43616e6e6f7420706572666f726d207769746864726177206265666f7265207460448201526c1a19481d1a5b5948189bdd5b99609a1b60648201526084016105f2565b33600090815260ca602090815260408083206001600160a01b038516845290915290205480610ca45760405162461bcd60e51b815260206004820152601c60248201527f4661726d696e673a204661726d65642062616c616e636520697320300000000060448201526064016105f2565b6040516370a0823160e01b815230600482015281906001600160a01b038416906370a082319060240160206040518083038186803b158015610ce557600080fd5b505afa158015610cf9573d6000803e3d6000fd5b505050506040513d601f19601f82011682018060405250810190610d1d91906129e8565b1015610d3b5760405162461bcd60e51b81526004016105f290612acb565b610d45828261226e565b5033600090815260cc602090815260408083206001600160a01b03949094168352929052908120556001609755565b6033546001600160a01b03163314610d9e5760405162461bcd60e51b81526004016105f290612b0f565b6109c76000612576565b6000808080805b6001600160a01b03808716600090815260cf60209081526040808320938b16835292905220548110156110ee576001600160a01b03808816600081815260c96020908152604080832060030154948b16835260ce825280832093835292905220805483908110610e2157610e21612cab565b9060005260206000200154610e369190612c0a565b42106110d7576001600160a01b03808716600090815260cd60209081526040808320938b16835292905220805482908110610e7357610e73612cab565b906000526020600020015484610e899190612c0a565b935083156110d2576001600160a01b038716600090815260c9602052604090206006015415610f92576001600160a01b038716600090815260c96020526040902060060154421115610f45576001600160a01b03808716600090815260ce60209081526040808320938b16835292905220805482908110610f0c57610f0c612cab565b60009182526020808320909101546001600160a01b038a16835260c9909152604090912060060154610f3e9190612c63565b9150610fe2565b6001600160a01b03808716600090815260ce60209081526040808320938b16835292905220805482908110610f7c57610f7c612cab565b906000526020600020015442610f3e9190612c63565b6001600160a01b03808716600090815260ce60209081526040808320938b16835292905220805482908110610fc957610fc9612cab565b906000526020600020015442610fdf9190612c63565b91505b6000610fff6007610ff9601881603c8189826125c8565b906125c8565b6001600160a01b038916600090815260c960205260408120600201549192509060349061102d908490612c44565b6110379190612c22565b90506064868261104f85670de0b6b3a7640000612c44565b6001600160a01b038d16600090815260c9602052604090206007015461107e90670de0b6b3a764000090612c22565b6110898b6064612c44565b6110939190612c22565b6110a590670de0b6b3a7640000612c44565b6110af9190612c0a565b6110b99190612c0a565b6110c39190612c44565b6110cd9190612c22565b945050505b6110dc565b6110ee565b806110e681612c7a565b915050610daf565b506001600160a01b03808616600081815260ca60209081526040808320948b168084529482528083206003015493835260d082528083209483529390529182205490919061113c8386612c0a565b6111469190612c63565b98975050505050505050565b600054610100900460ff1661116d5760005460ff1615611171565b303b155b6111d45760405162461bcd60e51b815260206004820152602e60248201527f496e697469616c697a61626c653a20636f6e747261637420697320616c72656160448201526d191e481a5b9a5d1a585b1a5e995960921b60648201526084016105f2565b600054610100900460ff161580156111f6576000805461ffff19166101011790555b6203f48060cb556112056125d4565b61120d61260b565b61121561263b565b8015611227576000805461ff00191690555b50565b6033546001600160a01b031633146112545760405162461bcd60e51b81526004016105f290612b0f565b60655460ff16156112775760405162461bcd60e51b81526004016105f290612aa1565b6001600160a01b038216600081815260c96020908152604091829020600201849055815192835282018390527fbfd81f858e2dd1dfd999d9fa1c540692cf78290ad524dde6317a5ccd917ee2c691016108e8565b6033546001600160a01b031633146112f55760405162461bcd60e51b81526004016105f290612b0f565b60655460ff16156113185760405162461bcd60e51b81526004016105f290612aa1565b6109c7612669565b6033546001600160a01b0316331461134a5760405162461bcd60e51b81526004016105f290612b0f565b60655460ff161561136d5760405162461bcd60e51b81526004016105f290612aa1565b60cb8190556040518181527f045b55e401a8da9067e12712489d51816fc2b790681a4e3dc9a4e9ee3e30ea019060200160405180910390a150565b6033546001600160a01b031633146113d25760405162461bcd60e51b81526004016105f290612b0f565b6001600160a01b03808316600090815260cd6020908152604080832093851683529290529081206114029161271b565b6001600160a01b03808316600090815260ce6020908152604080832093851683529290529081206114329161271b565b6001600160a01b03918216600081815260cf602090815260408083209490951680835293815284822082905591815260d0825283812092815291905290812055565b600260975414156114975760405162461bcd60e51b81526004016105f290612bd3565b600260975560655460ff16156114bf5760405162461bcd60e51b81526004016105f290612aa1565b6001600160a01b038216600090815260c9602052604090206004015443101561153e5760405162461bcd60e51b815260206004820152602b60248201527f4661726d696e673a2053746172742052657761726420426c6f636b206861732060448201526a1b9bdd081c995858da195960aa1b60648201526084016105f2565b6001600160a01b038216600090815260c96020526040902060060154156115bf576001600160a01b038216600090815260c960205260409020600601544211156115bf5760405162461bcd60e51b815260206004820152601260248201527111985c9b5a5b99ce8812185cc8195b99195960721b60448201526064016105f2565b6000811161160f5760405162461bcd60e51b815260206004820152601c60248201527f4661726d696e673a2042616c616e63652063616e6e6f7420626520300000000060448201526064016105f2565b6040516370a0823160e01b815233600482015281906001600160a01b038416906370a082319060240160206040518083038186803b15801561165057600080fd5b505afa158015611664573d6000803e3d6000fd5b505050506040513d601f19601f8201168201806040525081019061168891906129e8565b10156116e25760405162461bcd60e51b815260206004820152602360248201527f4661726d696e673a20496e73756666696369656e7420746f6b656e2062616c616044820152626e636560e81b60648201526084016105f2565b33600090815260ca602090815260408083206001600160a01b0386168452909152902060020154610100900460ff1615611798576001600160a01b038216600081815260c9602090815260408083206005015433845260ca8352818420948452939091529020600101546117569042612c63565b10156117985760405162461bcd60e51b815260206004820152601160248201527011985c9b5a5b99c81a5cc81b1bd8dad959607a1b60448201526064016105f2565b6040516323b872dd60e01b8152336004820152306024820152604481018290526000906001600160a01b038416906323b872dd90606401602060405180830381600087803b1580156117e957600080fd5b505af11580156117fd573d6000803e3d6000fd5b505050506040513d601f19601f820116820180604052508101906118219190612942565b9050801561196f57604051828152309033907f1c2e6bbe63329c6dbfb312237c5ea5ee7de487d791eb5ae7baf1aa89690313fb9060200160405180910390a333600081815260cd602090815260408083206001600160a01b0388168085529083528184208054600181810183559186528486200188905585855260ce845282852082865284528285208054918201815585528385204291015593835260cf82528083209383529290529081208054916118d983612c7a565b909155505033600090815260ca602090815260408083206001600160a01b038716845290915281208054849290611911908490612c0a565b909155505033600090815260ca602090815260408083206001600160a01b03871684528252808320426001820155600201805461ffff191661010117905560c990915281206007018054849290611969908490612c0a565b90915550505b5050600160975550565b6033546001600160a01b031633146119a35760405162461bcd60e51b81526004016105f290612b0f565b60005b8351811015611a9a576001600160a01b03808716600090815260cd6020908152604080832093891683529290522084518590839081106119e8576119e8612cab565b6020908102919091018101518254600181018455600093845282842001556001600160a01b03808916835260ce825260408084209189168452915290208351849083908110611a3957611a39612cab565b6020908102919091018101518254600181018455600093845282842001556001600160a01b03808916835260cf82526040808420918916845291528120805491611a8283612c7a565b91905055508080611a9290612c7a565b9150506119a6565b506001600160a01b03948516600090815260d0602090815260408083209690971682529490945293909220929092555050565b60655460ff1615611af05760405162461bcd60e51b81526004016105f290612aa1565b6001600160a01b03808216600081815260c9602052604090205490911614611b4f5760405162461bcd60e51b8152602060048201526012602482015271139bc814dd58da081c1bdbdb08199bdd5b9960721b60448201526064016105f2565b33600081815260cc602090815260408083206001600160a01b03861680855290835292819020429055519182527ff22a127877ca2dc6531b9dbc5edd6c65dc55e8382a1ba1bd3dd83039a72d802a910160405180910390a250565b6033546001600160a01b03163314611bd45760405162461bcd60e51b81526004016105f290612b0f565b60655460ff1615611bf75760405162461bcd60e51b81526004016105f290612aa1565b6001600160a01b038216600081815260c96020908152604091829020600601849055815192835282018390527f5975debe33ed4ca332b89a48709422d2c07a8ff6447656c7797f32edf300e51f91016108e8565b6033546001600160a01b03163314611c755760405162461bcd60e51b81526004016105f290612b0f565b6001600160a01b038216611ccb5760405162461bcd60e51b815260206004820152601c60248201527f416464726573732063616e74206265207a65726f20616464726573730000000060448201526064016105f2565b60008111611d105760405162461bcd60e51b81526020600482015260126024820152710416d6f756e742063616e6e6f7420626520360741b60448201526064016105f2565b6040516370a0823160e01b8152306004820152829082906001600160a01b038316906370a082319060240160206040518083038186803b158015611d5357600080fd5b505afa158015611d67573d6000803e3d6000fd5b505050506040513d601f19601f82011682018060405250810190611d8b91906129e8565b11611dd85760405162461bcd60e51b815260206004820152601a60248201527f416d6f756e742065786365656473207468652062616c616e636500000000000060448201526064016105f2565b60405163a9059cbb60e01b8152336004820152602481018390526000906001600160a01b0383169063a9059cbb90604401602060405180830381600087803b158015611e2357600080fd5b505af1158015611e37573d6000803e3d6000fd5b505050506040513d601f19601f82011682018060405250810190611e5b9190612942565b905080611e9c5760405162461bcd60e51b815260206004820152600f60248201526e151c985b9cd9995c8811985a5b1959608a1b60448201526064016105f2565b60405183815233906001600160a01b038616907f7079859245539ac894631367548c7bd452de88ccf2d234c85e1c8a535fb4c17e9060200160405180910390a350505050565b6033546001600160a01b03163314611f0c5760405162461bcd60e51b81526004016105f290612b0f565b60655460ff1615611f2f5760405162461bcd60e51b81526004016105f290612aa1565b6001600160a01b03828116600081815260c9602090815260409182902060010180546001600160a01b031916948616948517905581519283528201929092527f02cfc9362ad4db2b1459aadfd3f73aecc15596d388ec1827ae08fd8f2851c89c91016108e8565b6033546001600160a01b03163314611fc05760405162461bcd60e51b81526004016105f290612b0f565b6001600160a01b0381166120255760405162461bcd60e51b815260206004820152602660248201527f4f776e61626c653a206e6577206f776e657220697320746865207a65726f206160448201526564647265737360d01b60648201526084016105f2565b61122781612576565b6001600160a01b03828116600090815260c960205260408082206001015490516370a0823160e01b8152306004820152919283928592909116906370a082319060240160206040518083038186803b15801561208957600080fd5b505afa15801561209d573d6000803e3d6000fd5b505050506040513d601f19601f820116820180604052508101906120c191906129e8565b101561211a5760405162461bcd60e51b815260206004820152602260248201527f4661726d696e673a204e6f7420656e6f756768207265776172642062616c616e604482015261636560f01b60648201526084016105f2565b8215612267576001600160a01b03848116600090815260c9602052604080822060010154905163a9059cbb60e01b8152336004820152602481018790529192169063a9059cbb90604401602060405180830381600087803b15801561217e57600080fd5b505af1158015612192573d6000803e3d6000fd5b505050506040513d601f19601f820116820180604052508101906121b69190612942565b9050806122055760405162461bcd60e51b815260206004820152601860248201527f4661726d696e673a205472616e73666572204661696c6564000000000000000060448201526064016105f2565b33600081815260ca602090815260408083206001600160a01b038a168452825280832060030192909255905186815230917f6b053894d8fdbdcc936dd753e21291f0c48e68ef12306eb39a63a374147ba4bd910160405180910390a360019150505b9392505050565b600081116122be5760405162461bcd60e51b815260206004820152601c60248201527f4661726d696e673a204661726d65642062616c616e636520697320300000000060448201526064016105f2565b6040516370a0823160e01b815230600482015281906001600160a01b038416906370a082319060240160206040518083038186803b1580156122ff57600080fd5b505afa158015612313573d6000803e3d6000fd5b505050506040513d601f19601f8201168201806040525081019061233791906129e8565b10156123555760405162461bcd60e51b81526004016105f290612acb565b60405163a9059cbb60e01b8152336004820152602481018290526000906001600160a01b0384169063a9059cbb90604401602060405180830381600087803b1580156123a057600080fd5b505af11580156123b4573d6000803e3d6000fd5b505050506040513d601f19601f820116820180604052508101906123d89190612942565b905080156124de57604051828152339030907fd7a7e0d6f108460577046ddef9276e14920e9600280a8e81935b70f02503f2fb9060200160405180910390a333600081815260ca602090815260408083206001600160a01b03881680855290835281842084815560028101805461ff00191690556001810185905560030184905593835260cd82528083209383529290529081206124759161271b565b33600090815260ce602090815260408083206001600160a01b038716845290915281206124a19161271b565b33600081815260cf602090815260408083206001600160a01b03881680855290835281842084905593835260d08252808320938352929052908120555b505050565b60655460ff1661252c5760405162461bcd60e51b815260206004820152601460248201527314185d5cd8589b194e881b9bdd081c185d5cd95960621b60448201526064016105f2565b6065805460ff191690557f5db9ee0a495bf2e6ff9c91a7834c1ba4fdd244a5e8aa4e537bd38aeae4b073aa335b6040516001600160a01b03909116815260200160405180910390a1565b603380546001600160a01b038381166001600160a01b0319831681179093556040519116919082907f8be0079c531659141344cd1fd0a4f28419497f9722a3daafe3b4186f6b6457e090600090a35050565b60006122678284612c22565b600054610100900460ff166125fb5760405162461bcd60e51b81526004016105f290612b88565b6126036126c1565b6109c76126e8565b600054610100900460ff166126325760405162461bcd60e51b81526004016105f290612b88565b6109c733612576565b600054610100900460ff166126625760405162461bcd60e51b81526004016105f290612b88565b6001609755565b60655460ff161561268c5760405162461bcd60e51b81526004016105f290612aa1565b6065805460ff191660011790557f62e78cea01bee320cd4e420270b5ea74000d11b0c9f74754ebdbfc544b05a2586125593390565b600054610100900460ff166109c75760405162461bcd60e51b81526004016105f290612b88565b600054610100900460ff1661270f5760405162461bcd60e51b81526004016105f290612b88565b6065805460ff19169055565b508054600082559060005260206000209081019061122791905b808211156127495760008155600101612735565b5090565b600082601f83011261275e57600080fd5b8135602067ffffffffffffffff8083111561277b5761277b612cc1565b8260051b604051601f19603f830116810181811084821117156127a0576127a0612cc1565b604052848152838101925086840182880185018910156127bf57600080fd5b600092505b858310156127e25780358452928401926001929092019184016127c4565b50979650505050505050565b60006020828403121561280057600080fd5b813561226781612cd7565b6000806040838503121561281e57600080fd5b823561282981612cd7565b9150602083013561283981612cd7565b809150509250929050565b600080600080600060a0868803121561285c57600080fd5b853561286781612cd7565b9450602086013561287781612cd7565b9350604086013567ffffffffffffffff8082111561289457600080fd5b6128a089838a0161274d565b945060608801359150808211156128b657600080fd5b506128c38882890161274d565b95989497509295608001359392505050565b6000806000606084860312156128ea57600080fd5b83356128f581612cd7565b9250602084013561290581612cd7565b929592945050506040919091013590565b6000806040838503121561292957600080fd5b823561293481612cd7565b946020939093013593505050565b60006020828403121561295457600080fd5b8151801515811461226757600080fd5b600080600080600080600080610100898b03121561298157600080fd5b883561298c81612cd7565b9750602089013561299c81612cd7565b979a9799505050506040860135956060810135956080820135955060a0820135945060c0820135935060e0909101359150565b6000602082840312156129e157600080fd5b5035919050565b6000602082840312156129fa57600080fd5b5051919050565b600060208083528351808285015260005b81811015612a2e57858101830151858201604001528201612a12565b81811115612a40576000604083870101525b50601f01601f1916929092016040019392505050565b6020808252602b908201527f52657175657374207769746864726177206265666f726520706572666f726d6960408201526a6e6720776974686472617760a81b606082015260800190565b60208082526010908201526f14185d5cd8589b194e881c185d5cd95960821b604082015260600190565b60208082526024908201527f4661726d696e673a204e6f7420656e6f756768206c7020746f6b656e2062616c604082015263616e636560e01b606082015260800190565b6020808252818101527f4f776e61626c653a2063616c6c6572206973206e6f7420746865206f776e6572604082015260600190565b60208082526024908201527f4661726d696e673a204e6f206661726d65642062616c616e636520617661696c60408201526361626c6560e01b606082015260800190565b6020808252602b908201527f496e697469616c697a61626c653a20636f6e7472616374206973206e6f74206960408201526a6e697469616c697a696e6760a81b606082015260800190565b6020808252601f908201527f5265656e7472616e637947756172643a207265656e7472616e742063616c6c00604082015260600190565b60008219821115612c1d57612c1d612c95565b500190565b600082612c3f57634e487b7160e01b600052601260045260246000fd5b500490565b6000816000190483118215151615612c5e57612c5e612c95565b500290565b600082821015612c7557612c75612c95565b500390565b6000600019821415612c8e57612c8e612c95565b5060010190565b634e487b7160e01b600052601160045260246000fd5b634e487b7160e01b600052603260045260246000fd5b634e487b7160e01b600052604160045260246000fd5b6001600160a01b038116811461122757600080fdfea26469706673582212208b97795cdeb7b48c81941d16e71c421927b242232fe291162c548e34c48ff83f64736f6c63430008070033",
  "immutableReferences": {},
  "source": "//SPDX-License-Identifier: UNLICENSED\npragma solidity ^0.8.7;\n\nimport \"@openzeppelin/contracts-upgradeable/proxy/utils/Initializable.sol\";\nimport \"@openzeppelin/contracts-upgradeable/utils/ContextUpgradeable.sol\";\nimport \"@openzeppelin/contracts-upgradeable/security/ReentrancyGuardUpgradeable.sol\";\nimport \"@openzeppelin/contracts-upgradeable/access/OwnableUpgradeable.sol\";\nimport \"@openzeppelin/contracts-upgradeable/security/PausableUpgradeable.sol\";\nimport \"@openzeppelin/contracts-upgradeable/utils/math/SafeMathUpgradeable.sol\";\n\ninterface IBEP20 {\n    function totalSupply() external view returns (uint256);\n\n    function balanceOf(address account) external view returns (uint256);\n\n    function allowance(address owner, address spender)\n        external\n        view\n        returns (uint256);\n\n    function transfer(address recipient, uint256 amount)\n        external\n        returns (bool);\n\n    function approve(address spender, uint256 amount) external returns (bool);\n\n    function transferFrom(\n        address sender,\n        address recipient,\n        uint256 amount\n    ) external returns (bool);\n\n    event Transfer(address indexed from, address indexed to, uint256 value);\n    event Approval(\n        address indexed owner,\n        address indexed spender,\n        uint256 value\n    );\n}\n\ncontract EinsteinFarming is\n    OwnableUpgradeable,\n    PausableUpgradeable,\n    ReentrancyGuardUpgradeable\n{\n    using SafeMathUpgradeable for uint256;\n    string public constant name = \"EINSTEIN-Yield-Farming\";\n\n    // Info of each pool.\n    struct PoolInfo {\n        IBEP20 lpToken; // Address of LP token contract.\n        IBEP20 rewardToken; // Address of Reward token contract.\n        uint256 rewardRate; // Reward rate.\n        uint256 rewardInterval; // Interval to calculate reward.\n        uint256 startBlock; // Block number after which reward should start\n        uint256 lockPeriod; // Farming lock period\n        uint256 endTime; // Block number after which reward should stop\n        uint256 totalFarmedAmount; // Total farmed amount\n    }\n\n    // Info of each user.\n    struct UserInfo {\n        uint256 farmedAmount; // How many LP tokens the user has provided.\n        uint256 farmingStartTime; // Block number when the user farms\n        bool hasFarmed;\n        bool isFarming;\n        uint256 oldReward;\n    }\n\n    // Info of each pool.\n    mapping(IBEP20 => PoolInfo) public poolInfo;\n    // Info of each user that farms LP tokens.\n    mapping(address => mapping(IBEP20 => UserInfo)) public userInfo;\n    uint256 public timeBound; //72 hours in seconds\n    mapping(address => mapping(IBEP20 => uint256)) public userTimeBounds; //useraddress => lpTokenAddress => timestamprequested\n\n    // Upgrade state variables.\n    mapping(address => mapping(IBEP20 => uint256[])) public farmedBalances; //useraddress => lpTokenAddress => multiple times farmed amounts\n    mapping(address => mapping(IBEP20 => uint256[])) public farmingTimestamps; //useraddress => lpTokenAddress => multiple times user farmed\n    mapping(address => mapping(IBEP20 => uint256)) public userFarmCount; //useraddress => lpTokenAddress => number of times user farmed\n    mapping(address => mapping(IBEP20 => uint256)) public claimedReward; //useraddress => lpTokenAddress => Accumalated reward for user that will be subtracted everytime user claims reward\n\n    event Reward(address indexed from, address indexed to, uint256 amount);\n    event FarmedToken(address indexed from, address indexed to, uint256 amount);\n    event RemoveFarmedToken(\n        address indexed from,\n        address indexed to,\n        uint256 amount\n    );\n    event WithdrawFromFarmedBalance(address indexed user, uint256 amount);\n    event ExternalTokenTransferred(\n        address indexed from,\n        address indexed to,\n        uint256 amount\n    );\n    event UpdatedRewardRate(IBEP20 lpToken, uint256 rewardRate);\n    event UpdatedRewardToken(IBEP20 lpToken, IBEP20 rewardToken);\n    event UpdatedRewardInterval(IBEP20 lpToken, uint256 rewardInterval);\n    event UpdatedendTime(IBEP20 lpToken, uint256 endTime);\n    event UpdatedLockPeriod(IBEP20 lpToken, uint256 lockPeriod);\n    event withdrawRequested(address indexed to, IBEP20 lptoken);\n    event TimeBoundChanged(uint256 newTimeBound);\n\n    function initialize() public virtual initializer {\n        timeBound = 259200; //72 hours in seconds\n        // initializing\n        __Pausable_init();\n        __Ownable_init_unchained();\n        __ReentrancyGuard_init_unchained();\n    }\n\n    //\tconstructor() {}\n\n    // Add a new lp to the pool. Can only be called by the owner.\n    // XXX DO NOT add the same LP token more than once. Rewards will be messed up if you do.\n    function addPool(\n        IBEP20 _lpToken,\n        IBEP20 _rewardToken,\n        uint256 _rewardRate,\n        uint256 _rewardIntervalInSeconds,\n        uint256 _startBlock,\n        uint256 _lockPeriodInSeconds,\n        uint256 _endTime,\n        uint256 _totalFarmedAmount\n    ) external onlyOwner {\n        poolInfo[_lpToken] = PoolInfo({\n            lpToken: _lpToken,\n            rewardToken: _rewardToken,\n            rewardRate: _rewardRate,\n            rewardInterval: _rewardIntervalInSeconds,\n            startBlock: _startBlock,\n            lockPeriod: _lockPeriodInSeconds,\n            endTime: _endTime,\n            totalFarmedAmount: _totalFarmedAmount\n        });\n    }\n\n    // Farm Tokens (Deposit): An investor will deposit the lpToken into the smart contracts to starting earning rewards.\n    // Core Thing: Transfer the lpToken from the investor's wallet to this smart contract.\n\n    function farmTokensForReward(IBEP20 lpToken, uint256 _amount)\n        external\n        virtual\n        nonReentrant\n        whenNotPaused\n    {\n        require(\n            block.number >= poolInfo[lpToken].startBlock,\n            \"Farming: Start Reward Block has not reached\"\n        );\n        if (poolInfo[lpToken].endTime > 0)\n            require(\n                block.timestamp <= poolInfo[lpToken].endTime,\n                \"Farming: Has ended\"\n            );\n        require(_amount > 0, \"Farming: Balance cannot be 0\"); // Farming amount cannot be zero\n        require(\n            lpToken.balanceOf(msg.sender) >= _amount,\n            \"Farming: Insufficient token balance\"\n        ); // Checking msg.sender balance\n\n        if (userInfo[msg.sender][lpToken].isFarming) {\n            require(\n                (block.timestamp -\n                    userInfo[msg.sender][lpToken].farmingStartTime) >=\n                    poolInfo[lpToken].lockPeriod,\n                \"Farming is locked\"\n            );\n            // uint256 oldReward = calculateReward(lpToken, msg.sender);\n            // userInfo[msg.sender][lpToken].oldReward += oldReward;\n        }\n\n        bool transferStatus = lpToken.transferFrom(\n            msg.sender,\n            address(this),\n            _amount\n        );\n        if (transferStatus) {\n            emit FarmedToken(msg.sender, address(this), _amount);\n\n            // Upgrade state variables.\n            farmedBalances[msg.sender][lpToken].push(_amount);\n            farmingTimestamps[msg.sender][lpToken].push(block.timestamp);\n            userFarmCount[msg.sender][lpToken]++;\n\n            userInfo[msg.sender][lpToken].farmedAmount += _amount; // update user farming balance\n            userInfo[msg.sender][lpToken].farmingStartTime = block.timestamp; // save the time when they started farming\n            // update farming status\n            userInfo[msg.sender][lpToken].isFarming = true;\n            userInfo[msg.sender][lpToken].hasFarmed = true;\n            poolInfo[lpToken].totalFarmedAmount += _amount;\n        }\n    }\n\n    // Returns the reward of the caller\n    function calculateReward(IBEP20 lpToken, address _rewardAddress)\n        public\n        view\n        returns (uint256)\n    {\n        // uint256 balances = userInfo[_rewardAddress][lpToken].farmedAmount /\n        //    10**18;\n        uint256 balances = 0;\n        uint256 rewards = 0;\n        uint256 timeDifferences;\n        for (uint256 i = 0; i < userFarmCount[_rewardAddress][lpToken]; i++) {\n            if (\n                block.timestamp >=\n                farmingTimestamps[_rewardAddress][lpToken][i] +\n                    poolInfo[lpToken].rewardInterval\n            ) {\n                balances += farmedBalances[_rewardAddress][lpToken][i];\n                if (balances > 0) {\n                    if (poolInfo[lpToken].endTime > 0) {\n                        if (block.timestamp > poolInfo[lpToken].endTime) {\n                            timeDifferences =\n                                poolInfo[lpToken].endTime -\n                                farmingTimestamps[_rewardAddress][lpToken][i];\n                        } else {\n                            timeDifferences =\n                                block.timestamp -\n                                farmingTimestamps[_rewardAddress][lpToken][i];\n                        }\n                    } else {\n                        timeDifferences =\n                            block.timestamp -\n                            farmingTimestamps[_rewardAddress][lpToken][i];\n                    }\n                    // reward calculation\n                    uint256 timeFactor = timeDifferences\n                        .div(60)\n                        .div(60)\n                        .div(24)\n                        .div(7);\n                    uint256 apyFactorInWei = (poolInfo[lpToken].rewardRate *\n                        timeFactor) / 52;\n                    rewards = ((((((balances * 100) /\n                        (poolInfo[lpToken].totalFarmedAmount / 10**18)) *\n                        (10**18)) +\n                        (timeFactor * (10**18)) +\n                        apyFactorInWei) * balances) / 100);\n                }\n            } else {\n                break;\n            }\n        }\n        uint256 oldReward = userInfo[_rewardAddress][lpToken].oldReward;\n        uint256 totalReward = (rewards + oldReward) -\n            claimedReward[_rewardAddress][lpToken];\n        return totalReward;\n    }\n\n    function withdrawFarmedTokens(IBEP20 lpToken)\n        external\n        virtual\n        nonReentrant\n        whenNotPaused\n    {\n        require(\n            userInfo[msg.sender][lpToken].isFarming,\n            \"Farming: No farmed balance available\"\n        );\n        require(\n            (block.timestamp -\n                userInfo[msg.sender][lpToken].farmingStartTime) >=\n                poolInfo[lpToken].lockPeriod,\n            \"Farming: Is in lock period\"\n        );\n        require(\n            userTimeBounds[msg.sender][lpToken] > 0,\n            \"Request withdraw before performing withdraw\"\n        );\n        require(\n            block.timestamp >= userTimeBounds[msg.sender][lpToken] + timeBound,\n            \"Cannot perform withdraw within the unbound time\"\n        );\n\n        uint256 balance = userInfo[msg.sender][lpToken].farmedAmount;\n        uint256 reward = calculateReward(lpToken, msg.sender);\n        // send reward\n        sendRewardTokens(lpToken, reward);\n\n        // send farmed tokens\n        removeFarmedTokens(lpToken, balance);\n        userTimeBounds[msg.sender][lpToken] = 0;\n    }\n\n    // Withdraw without caring about rewards. EMERGENCY ONLY.\n    function emergencyWithdraw(IBEP20 lpToken)\n        external\n        nonReentrant\n        whenNotPaused\n    {\n        require(\n            userInfo[msg.sender][lpToken].isFarming,\n            \"Farming: No farmed balance available\"\n        );\n        require(\n            userTimeBounds[msg.sender][lpToken] > 0,\n            \"Request withdraw before performing withdraw\"\n        );\n        require(\n            block.timestamp >= userTimeBounds[msg.sender][lpToken] + timeBound,\n            \"Cannot perform withdraw before the time bound\"\n        );\n        uint256 balance = userInfo[msg.sender][lpToken].farmedAmount;\n        require(balance > 0, \"Farming: Farmed balance is 0\");\n        require(\n            lpToken.balanceOf(address(this)) >= balance,\n            \"Farming: Not enough lp token balance\"\n        );\n        // send farmed tokens\n        removeFarmedTokens(lpToken, balance);\n        userTimeBounds[msg.sender][lpToken] = 0;\n    }\n\n    function sendRewardTokens(IBEP20 lpToken, uint256 calculatedReward)\n        internal\n        virtual\n        returns (bool)\n    {\n        bool rewardStatus;\n        require(\n            poolInfo[lpToken].rewardToken.balanceOf(address(this)) >=\n                calculatedReward,\n            \"Farming: Not enough reward balance\"\n        );\n\n        if (calculatedReward > 0) {\n            bool transferStatus = poolInfo[lpToken].rewardToken.transfer(\n                msg.sender,\n                calculatedReward\n            );\n            require(transferStatus, \"Farming: Transfer Failed\");\n            userInfo[msg.sender][lpToken].oldReward = 0;\n            emit Reward(address(this), msg.sender, calculatedReward);\n            rewardStatus = true;\n        }\n        return rewardStatus;\n    }\n\n    function removeFarmedTokens(IBEP20 lpToken, uint256 balance)\n        internal\n        virtual\n    {\n        require(balance > 0, \"Farming: Farmed balance is 0\");\n        require(\n            lpToken.balanceOf(address(this)) >= balance,\n            \"Farming: Not enough lp token balance\"\n        );\n\n        // remove farmed tokens\n        bool transferStatus = lpToken.transfer(msg.sender, balance);\n        if (transferStatus) {\n            emit RemoveFarmedToken(address(this), msg.sender, balance);\n            userInfo[msg.sender][lpToken].farmedAmount = 0; // reset staking balance\n            userInfo[msg.sender][lpToken].isFarming = false; // update staking status and stakingStartTime (restore to zero)\n            userInfo[msg.sender][lpToken].farmingStartTime = 0;\n            userInfo[msg.sender][lpToken].oldReward = 0;\n\n            // Upgrade state variables.\n            delete farmedBalances[msg.sender][lpToken];\n            delete farmingTimestamps[msg.sender][lpToken];\n            userFarmCount[msg.sender][lpToken] = 0;\n            claimedReward[msg.sender][lpToken] = 0;\n        }\n    }\n\n    // withdraw bep20 tokens in contract address\n    function withdrawBEP20Token(address _tokenContract, uint256 _amount)\n        external\n        virtual\n        onlyOwner\n    {\n        require(_tokenContract != address(0), \"Address cant be zero address\"); // 0 address validation\n        require(_amount > 0, \"Amount cannot be 0\"); // require amount greater than 0\n        IBEP20 tokenContract = IBEP20(_tokenContract);\n        require(\n            tokenContract.balanceOf(address(this)) > _amount,\n            \"Amount exceeds the balance\"\n        );\n        bool transferStatus = tokenContract.transfer(msg.sender, _amount);\n        require(transferStatus, \"Transfer Failed\");\n        emit ExternalTokenTransferred(_tokenContract, msg.sender, _amount);\n    }\n\n    // set reward rate for pool in weiAmount\n    function setRewardRate(IBEP20 lpToken, uint256 _rewardRate)\n        external\n        virtual\n        onlyOwner\n        whenNotPaused\n    {\n        poolInfo[lpToken].rewardRate = _rewardRate;\n        emit UpdatedRewardRate(lpToken, _rewardRate);\n    }\n\n    // set reward token address\n    function setRewardToken(IBEP20 lpToken, IBEP20 _rewardToken)\n        external\n        virtual\n        onlyOwner\n        whenNotPaused\n    {\n        poolInfo[lpToken].rewardToken = _rewardToken;\n        emit UpdatedRewardToken(lpToken, _rewardToken);\n    }\n\n    // set reward interval\n    function setRewardInterval(IBEP20 lpToken, uint256 _rewardInterval)\n        external\n        virtual\n        onlyOwner\n        whenNotPaused\n    {\n        poolInfo[lpToken].rewardInterval = _rewardInterval;\n        emit UpdatedRewardInterval(lpToken, _rewardInterval);\n    }\n\n    // set end block\n    function setEndTime(IBEP20 lpToken, uint256 _endTime)\n        external\n        virtual\n        onlyOwner\n        whenNotPaused\n    {\n        poolInfo[lpToken].endTime = _endTime;\n        emit UpdatedendTime(lpToken, _endTime);\n    }\n\n    // set lock period\n    function setLockPeriod(IBEP20 lpToken, uint256 _lockPeriodInSeconds)\n        external\n        virtual\n        onlyOwner\n        whenNotPaused\n    {\n        poolInfo[lpToken].lockPeriod = _lockPeriodInSeconds;\n        emit UpdatedLockPeriod(lpToken, _lockPeriodInSeconds);\n    }\n\n    function requestWithdraw(IBEP20 _lpToken) external virtual whenNotPaused {\n        require(poolInfo[_lpToken].lpToken == _lpToken, \"No Such pool found\");\n        userTimeBounds[msg.sender][_lpToken] = block.timestamp;\n        emit withdrawRequested(msg.sender, _lpToken);\n    }\n\n    function setTimeBound(uint256 _newTimeBound)\n        external\n        virtual\n        onlyOwner\n        whenNotPaused\n    {\n        timeBound = _newTimeBound;\n        emit TimeBoundChanged(timeBound);\n    }\n\n    function upgradeUsers(\n        address userAddress,\n        IBEP20 _lpToken,\n        uint256[] memory balances,\n        uint256[] memory timestamps,\n        uint256 _claimedReward\n    ) public onlyOwner {\n        for (uint256 i = 0; i < balances.length; i++) {\n            farmedBalances[userAddress][_lpToken].push(balances[i]);\n            farmingTimestamps[userAddress][_lpToken].push(timestamps[i]);\n            userFarmCount[userAddress][_lpToken]++;\n        }\n        claimedReward[userAddress][_lpToken] = _claimedReward;\n    }\n\n    function removeUsers(address userAddress, IBEP20 _lpToken)\n        public\n        onlyOwner\n    {\n        delete farmedBalances[userAddress][_lpToken];\n        delete farmingTimestamps[userAddress][_lpToken];\n        userFarmCount[userAddress][_lpToken] = 0;\n        claimedReward[userAddress][_lpToken] = 0;\n    }\n\n    function pause() external onlyOwner whenNotPaused {\n        _pause();\n    }\n\n    function unpause() external onlyOwner {\n        _unpause();\n    }\n}\n",
  "sourcePath": "/home/mohsin/Desktop/pdog-farming/contracts/EinsteinFarming.sol",
  "compiler": {
    "name": "solc",
    "version": "0.8.7+commit.e28d00a7.Emscripten.clang"
  },
  "schemaVersion": "3.4.3",
  "updatedAt": "2021-12-30T20:11:24.778Z",
  "devdoc": {
    "kind": "dev",
    "methods": {
      "owner()": {
        "details": "Returns the address of the current owner."
      },
      "paused()": {
        "details": "Returns true if the contract is paused, and false otherwise."
      },
      "renounceOwnership()": {
        "details": "Leaves the contract without owner. It will not be possible to call `onlyOwner` functions anymore. Can only be called by the current owner. NOTE: Renouncing ownership will leave the contract without an owner, thereby removing any functionality that is only available to the owner."
      },
      "transferOwnership(address)": {
        "details": "Transfers ownership of the contract to a new account (`newOwner`). Can only be called by the current owner."
      }
    },
    "version": 1
  },
  "userdoc": {
    "kind": "user",
    "methods": {},
    "version": 1
  }
}